{
  "contractName": "ArgentWalletDetector",
  "abi": [
    {
      "inputs": [
        {
          "internalType": "bytes32[]",
          "name": "_codes",
          "type": "bytes32[]"
        },
        {
          "internalType": "address[]",
          "name": "_implementations",
          "type": "address[]"
        }
      ],
      "stateMutability": "nonpayable",
      "type": "constructor"
    },
    {
      "anonymous": false,
      "inputs": [
        {
          "indexed": true,
          "internalType": "bytes32",
          "name": "code",
          "type": "bytes32"
        }
      ],
      "name": "CodeAdded",
      "type": "event"
    },
    {
      "anonymous": false,
      "inputs": [
        {
          "indexed": true,
          "internalType": "address",
          "name": "implementation",
          "type": "address"
        }
      ],
      "name": "ImplementationAdded",
      "type": "event"
    },
    {
      "anonymous": false,
      "inputs": [
        {
          "indexed": true,
          "internalType": "address",
          "name": "_newOwner",
          "type": "address"
        }
      ],
      "name": "OwnerChanged",
      "type": "event"
    },
    {
      "inputs": [
        {
          "internalType": "bytes32",
          "name": "",
          "type": "bytes32"
        }
      ],
      "name": "acceptedCodes",
      "outputs": [
        {
          "internalType": "bool",
          "name": "exists",
          "type": "bool"
        },
        {
          "internalType": "uint128",
          "name": "index",
          "type": "uint128"
        }
      ],
      "stateMutability": "view",
      "type": "function"
    },
    {
      "inputs": [
        {
          "internalType": "address",
          "name": "",
          "type": "address"
        }
      ],
      "name": "acceptedImplementations",
      "outputs": [
        {
          "internalType": "bool",
          "name": "exists",
          "type": "bool"
        },
        {
          "internalType": "uint128",
          "name": "index",
          "type": "uint128"
        }
      ],
      "stateMutability": "view",
      "type": "function"
    },
    {
      "inputs": [
        {
          "internalType": "address",
          "name": "_newOwner",
          "type": "address"
        }
      ],
      "name": "changeOwner",
      "outputs": [],
      "stateMutability": "nonpayable",
      "type": "function"
    },
    {
      "inputs": [],
      "name": "owner",
      "outputs": [
        {
          "internalType": "address",
          "name": "",
          "type": "address"
        }
      ],
      "stateMutability": "view",
      "type": "function"
    },
    {
      "inputs": [
        {
          "internalType": "bytes32",
          "name": "_code",
          "type": "bytes32"
        }
      ],
      "name": "addCode",
      "outputs": [],
      "stateMutability": "nonpayable",
      "type": "function"
    },
    {
      "inputs": [
        {
          "internalType": "address",
          "name": "_impl",
          "type": "address"
        }
      ],
      "name": "addImplementation",
      "outputs": [],
      "stateMutability": "nonpayable",
      "type": "function"
    },
    {
      "inputs": [
        {
          "internalType": "address",
          "name": "_argentWallet",
          "type": "address"
        }
      ],
      "name": "addCodeAndImplementationFromWallet",
      "outputs": [],
      "stateMutability": "nonpayable",
      "type": "function"
    },
    {
      "inputs": [],
      "name": "getImplementations",
      "outputs": [
        {
          "internalType": "address[]",
          "name": "",
          "type": "address[]"
        }
      ],
      "stateMutability": "view",
      "type": "function"
    },
    {
      "inputs": [],
      "name": "getCodes",
      "outputs": [
        {
          "internalType": "bytes32[]",
          "name": "",
          "type": "bytes32[]"
        }
      ],
      "stateMutability": "view",
      "type": "function"
    },
    {
      "inputs": [
        {
          "internalType": "address",
          "name": "_wallet",
          "type": "address"
        }
      ],
      "name": "isArgentWallet",
      "outputs": [
        {
          "internalType": "bool",
          "name": "",
          "type": "bool"
        }
      ],
      "stateMutability": "view",
      "type": "function"
    }
  ],
  "bytecode": "0x60806040523480156200001157600080fd5b5060405162000fac38038062000fac83398101604081905262000034916200044f565b600080546001600160a01b031916331781555b82518110156200009f576200008a8382815181106200007657634e487b7160e01b600052603260045260246000fd5b60200260200101516200010460201b60201c565b8062000096816200058a565b91505062000047565b5060005b8151811015620000fb57620000e6828281518110620000d257634e487b7160e01b600052603260045260246000fd5b60200260200101516200024b60201b60201c565b80620000f2816200058a565b915050620000a3565b505050620005d4565b6000546001600160a01b03163314620001545760405162461bcd60e51b815260206004820152600d60248201526c26bab9ba1031329037bbb732b960991b60448201526064015b60405180910390fd5b80620001965760405162461bcd60e51b815260206004820152601060248201526f4157523a20656d707479205f636f646560801b60448201526064016200014b565b6000818152600360205260409020805460ff16620002475760018054808201825560008290527fb10e2d527612073b26eecdfd717e6a320cf44b4afac2b0732d9fcbe2b7fa0cf601839055815460ff1916811782558054620001f9919062000570565b81546001600160801b039190911661010002610100600160881b031990911617815560405182907ff7730034374433e658c7ad22311d0b235eb7f834c923fd0a47851bd245b6181190600090a25b5050565b6000546001600160a01b03163314620002975760405162461bcd60e51b815260206004820152600d60248201526c26bab9ba1031329037bbb732b960991b60448201526064016200014b565b6001600160a01b038116620002e25760405162461bcd60e51b815260206004820152601060248201526f1055d48e88195b5c1d1e4817da5b5c1b60821b60448201526064016200014b565b6001600160a01b0381166000908152600460205260409020805460ff166200024757600280546001808201835560008390527f405787fa12a823e0f2b7631cc41b3ba8828b3321ca811111fa75cd3aa3bb5ace90910180546001600160a01b0319166001600160a01b038616179055825460ff191681178355905462000369919062000570565b81546001600160801b039190911661010002610100600160881b03199091161781556040516001600160a01b038316907f331cedc71f28c46d467691770675b586e8aa77a0d4fe09f257d01ef00bc1545890600090a25050565b600082601f830112620003d4578081fd5b81516020620003ed620003e7836200054a565b62000517565b80838252828201915082860187848660051b89010111156200040d578586fd5b855b85811015620004425781516001600160a01b03811681146200042f578788fd5b845292840192908401906001016200040f565b5090979650505050505050565b6000806040838503121562000462578182fd5b82516001600160401b038082111562000479578384fd5b818501915085601f8301126200048d578384fd5b81516020620004a0620003e7836200054a565b8083825282820191508286018a848660051b8901011115620004c0578889fd5b8896505b84871015620004e4578051835260019690960195918301918301620004c4565b5091880151919650909350505080821115620004fe578283fd5b506200050d85828601620003c3565b9150509250929050565b604051601f8201601f191681016001600160401b0381118282101715620005425762000542620005be565b604052919050565b60006001600160401b03821115620005665762000566620005be565b5060051b60200190565b600082821015620005855762000585620005a8565b500390565b6000600019821415620005a157620005a1620005a8565b5060010190565b634e487b7160e01b600052601160045260246000fd5b634e487b7160e01b600052604160045260246000fd5b6109c880620005e46000396000f3fe608060405234801561001057600080fd5b50600436106100be5760003560e01c8063a6f9dae111610076578063c29fb0f11161005b578063c29fb0f1146101e3578063c6e2a400146101f8578063f7c8afb71461020b576100be565b8063a6f9dae1146101bd578063bd637580146101d0576100be565b8063615f64fe116100a7578063615f64fe14610141578063796c550f146101565780638da5cb5b14610192576100be565b80631e1a7f03146100c357806348d507d7146100d8575b600080fd5b6100d66100d1366004610869565b61022e565b005b6101146100e63660046108a1565b60036020526000908152604090205460ff81169061010090046fffffffffffffffffffffffffffffffff1682565b6040805192151583526fffffffffffffffffffffffffffffffff9091166020830152015b60405180910390f35b61014961030b565b60405161013891906108b9565b610114610164366004610869565b60046020526000908152604090205460ff81169061010090046fffffffffffffffffffffffffffffffff1682565b6000546101a5906001600160a01b031681565b6040516001600160a01b039091168152602001610138565b6100d66101cb366004610869565b61036d565b6100d66101de3660046108a1565b610462565b6101eb6105bd565b6040516101389190610906565b6100d6610206366004610869565b610614565b61021e610219366004610869565b6107b1565b6040519015158152602001610138565b6000546001600160a01b0316331461027d5760405162461bcd60e51b815260206004820152600d60248201526c26bab9ba1031329037bbb732b960991b60448201526064015b60405180910390fd5b803f61028881610462565b6000826001600160a01b0316635c60da1b6040518163ffffffff1660e01b815260040160206040518083038186803b1580156102c357600080fd5b505afa1580156102d7573d6000803e3d6000fd5b505050506040513d601f19601f820116820180604052508101906102fb9190610885565b905061030681610614565b505050565b6060600280548060200260200160405190810160405280929190818152602001828054801561036357602002820191906000526020600020905b81546001600160a01b03168152600190910190602001808311610345575b5050505050905090565b6000546001600160a01b031633146103b75760405162461bcd60e51b815260206004820152600d60248201526c26bab9ba1031329037bbb732b960991b6044820152606401610274565b6001600160a01b03811661040d5760405162461bcd60e51b815260206004820152601860248201527f41646472657373206d757374206e6f74206265206e756c6c00000000000000006044820152606401610274565b6000805473ffffffffffffffffffffffffffffffffffffffff19166001600160a01b038316908117825560405190917fa2ea9883a321a3e97b8266c2b078bfeec6d50c711ed71f874a90d500ae2eaf3691a250565b6000546001600160a01b031633146104ac5760405162461bcd60e51b815260206004820152600d60248201526c26bab9ba1031329037bbb732b960991b6044820152606401610274565b806104f95760405162461bcd60e51b815260206004820152601060248201527f4157523a20656d707479205f636f6465000000000000000000000000000000006044820152606401610274565b6000818152600360205260409020805460ff166105b95760018054808201825560008290527fb10e2d527612073b26eecdfd717e6a320cf44b4afac2b0732d9fcbe2b7fa0cf601839055815460ff1916811782558054610559919061093e565b81546fffffffffffffffffffffffffffffffff919091166101000270ffffffffffffffffffffffffffffffff001990911617815560405182907ff7730034374433e658c7ad22311d0b235eb7f834c923fd0a47851bd245b6181190600090a25b5050565b6060600180548060200260200160405190810160405280929190818152602001828054801561036357602002820191906000526020600020905b8154815260200190600101908083116105f7575050505050905090565b6000546001600160a01b0316331461065e5760405162461bcd60e51b815260206004820152600d60248201526c26bab9ba1031329037bbb732b960991b6044820152606401610274565b6001600160a01b0381166106b45760405162461bcd60e51b815260206004820152601060248201527f4157523a20656d707479205f696d706c000000000000000000000000000000006044820152606401610274565b6001600160a01b0381166000908152600460205260409020805460ff166105b957600280546001808201835560008390527f405787fa12a823e0f2b7631cc41b3ba8828b3321ca811111fa75cd3aa3bb5ace909101805473ffffffffffffffffffffffffffffffffffffffff19166001600160a01b038616179055825460ff1916811783559054610745919061093e565b81546fffffffffffffffffffffffffffffffff919091166101000270ffffffffffffffffffffffffffffffff00199091161781556040516001600160a01b038316907f331cedc71f28c46d467691770675b586e8aa77a0d4fe09f257d01ef00bc1545890600090a25050565b803f60008181526003602052604081205490919060ff168015610862575060046000846001600160a01b0316635c60da1b6040518163ffffffff1660e01b815260040160206040518083038186803b15801561080c57600080fd5b505afa158015610820573d6000803e3d6000fd5b505050506040513d601f19601f820116820180604052508101906108449190610885565b6001600160a01b0316815260208101919091526040016000205460ff165b9392505050565b60006020828403121561087a578081fd5b81356108628161097a565b600060208284031215610896578081fd5b81516108628161097a565b6000602082840312156108b2578081fd5b5035919050565b6020808252825182820181905260009190848201906040850190845b818110156108fa5783516001600160a01b0316835292840192918401916001016108d5565b50909695505050505050565b6020808252825182820181905260009190848201906040850190845b818110156108fa57835183529284019291840191600101610922565b600082821015610975577f4e487b710000000000000000000000000000000000000000000000000000000081526011600452602481fd5b500390565b6001600160a01b038116811461098f57600080fd5b5056fea2646970667358221220b99b6952bd3994e7006486139790548781d56696e48e6443ab1f3cfeafc243b764736f6c63430008030033",
  "immutableReferences": {},
  "source": "// Copyright (C) 2018  Argent Labs Ltd. <https://argent.xyz>\n\n// This program is free software: you can redistribute it and/or modify\n// it under the terms of the GNU General Public License as published by\n// the Free Software Foundation, either version 3 of the License, or\n// (at your option) any later version.\n\n// This program is distributed in the hope that it will be useful,\n// but WITHOUT ANY WARRANTY; without even the implied warranty of\n// MERCHANTABILITY or FITNESS FOR A PARTICULAR PURPOSE.  See the\n// GNU General Public License for more details.\n\n// You should have received a copy of the GNU General Public License\n// along with this program.  If not, see <http://www.gnu.org/licenses/>.\n\n// SPDX-License-Identifier: GPL-3.0-only\npragma solidity ^0.8.3;\nimport \"./base/Owned.sol\";\n\ninterface IArgentWallet {\n    /**\n     * @notice Returns the implementation of the wallet.\n     * @return The wallet implementation.\n     */\n    function implementation() external view returns (address);\n}\n\n/**\n * @title ArgentWalletDetector\n * @notice Simple contract to detect if a given address represents an Argent wallet.\n * The `isArgentWallet` method returns true if the codehash matches one of the deployed Proxy\n * and if the target implementation matches one of the deployed BaseWallet.\n * Only the owner of the contract can add code hash and implementations.\n * @author Julien Niset - <julien@argent.xyz>\n */\ncontract ArgentWalletDetector is Owned {\n\t\n    // The accepted code hashes\n    bytes32[] private codes;\n    // The accepted implementations\n    address[] private implementations;\n    // mapping to efficiently check if a code is accepted\n    mapping (bytes32 => Info) public acceptedCodes;\n    // mapping to efficiently check is an implementation is accepted\n    mapping (address => Info) public acceptedImplementations;\n\n    struct Info {\n        bool exists;\n        uint128 index;\n    }\n\n    // emits when a new accepted code is added\n    event CodeAdded(bytes32 indexed code);\n    // emits when a new accepted implementation is added \n    event ImplementationAdded(address indexed implementation);\n\n    constructor(bytes32[] memory _codes, address[] memory _implementations) {\n        for(uint i = 0; i < _codes.length; i++) {\n            addCode(_codes[i]);\n        }\n        for(uint j = 0; j < _implementations.length; j++) {\n            addImplementation(_implementations[j]);\n        }\n    }\n\n    /**\n    * @notice Adds a new accepted code hash.\n    * @param _code The new code hash.\n    */\n    function addCode(bytes32 _code) public onlyOwner {\n        require(_code != bytes32(0), \"AWR: empty _code\");\n        Info storage code = acceptedCodes[_code];\n        if(!code.exists) {\n            codes.push(_code);\n            code.exists = true;\n            code.index = uint128(codes.length - 1);\n            emit CodeAdded(_code);\n        }\n    }\n\t\n    /**\n    * @notice Adds a new accepted implementation.\n    * @param _impl The new implementation.\n    */\n    function addImplementation(address _impl) public onlyOwner {\n        require(_impl != address(0), \"AWR: empty _impl\");\n        Info storage impl = acceptedImplementations[_impl];\n        if(!impl.exists) {\n            implementations.push(_impl);\n            impl.exists = true;\n            impl.index = uint128(implementations.length - 1);\n            emit ImplementationAdded(_impl);\n        }\n    }\n\n    /**\n    * @notice Adds a new accepted code hash and implementation from a deployed Argent wallet.\n    * @param _argentWallet The deployed Argent wallet.\n    */\n    function addCodeAndImplementationFromWallet(address _argentWallet) external onlyOwner {\n        bytes32 codeHash;   \n        // solhint-disable-next-line no-inline-assembly\n        assembly { codeHash := extcodehash(_argentWallet) }\n        addCode(codeHash);\n        address implementation = IArgentWallet(_argentWallet).implementation(); \n        addImplementation(implementation);\n    }\n\n    /**\n    * @notice Gets the list of accepted implementations.\n    */\n    function getImplementations() public view returns (address[] memory) {\n        return implementations;\n    }\n\n    /**\n    * @notice Gets the list of accepted code hash.\n    */\n    function getCodes() public view returns (bytes32[] memory) {\n        return codes;\n    }\n\n    /**\n    * @notice Checks if an address is an Argent wallet\n    * @param _wallet The target wallet\n    */\n    function isArgentWallet(address _wallet) external view returns (bool) {\n        bytes32 codeHash;    \n        // solhint-disable-next-line no-inline-assembly\n        assembly { codeHash := extcodehash(_wallet) }\n        return acceptedCodes[codeHash].exists && acceptedImplementations[IArgentWallet(_wallet).implementation()].exists;\n    }\n}\n",
  "sourcePath": "/Users/mmv/projects/personal/argent-contracts/contracts/infrastructure/ArgentWalletDetector.sol",
  "compiler": {
    "name": "solc",
    "version": "0.8.3+commit.8d00100c.Emscripten.clang"
  },
  "schemaVersion": "3.3.0",
  "updatedAt": "2021-06-05T17:15:53.936Z",
  "devdoc": {
    "author": "Julien Niset - <julien@argent.xyz>",
    "kind": "dev",
    "methods": {
      "addCode(bytes32)": {
        "params": {
          "_code": "The new code hash."
        }
      },
      "addCodeAndImplementationFromWallet(address)": {
        "params": {
          "_argentWallet": "The deployed Argent wallet."
        }
      },
      "addImplementation(address)": {
        "params": {
          "_impl": "The new implementation."
        }
      },
      "changeOwner(address)": {
        "params": {
          "_newOwner": "The new owner."
        }
      },
      "isArgentWallet(address)": {
        "params": {
          "_wallet": "The target wallet"
        }
      }
    },
    "title": "ArgentWalletDetector",
    "version": 1
  },
  "userdoc": {
    "kind": "user",
    "methods": {
      "addCode(bytes32)": {
        "notice": "Adds a new accepted code hash."
      },
      "addCodeAndImplementationFromWallet(address)": {
        "notice": "Adds a new accepted code hash and implementation from a deployed Argent wallet."
      },
      "addImplementation(address)": {
        "notice": "Adds a new accepted implementation."
      },
      "changeOwner(address)": {
        "notice": "Lets the owner transfer ownership of the contract to a new owner."
      },
      "getCodes()": {
        "notice": "Gets the list of accepted code hash."
      },
      "getImplementations()": {
        "notice": "Gets the list of accepted implementations."
      },
      "isArgentWallet(address)": {
        "notice": "Checks if an address is an Argent wallet"
      }
    },
    "notice": "Simple contract to detect if a given address represents an Argent wallet. The `isArgentWallet` method returns true if the codehash matches one of the deployed Proxy and if the target implementation matches one of the deployed BaseWallet. Only the owner of the contract can add code hash and implementations.",
    "version": 1
  }
}